{
  "contractName": "Structregistry",
  "abi": [
    {
      "constant": false,
      "inputs": [
        {
          "internalType": "address",
          "name": "Account",
          "type": "address"
        },
        {
          "internalType": "string",
          "name": "name",
          "type": "string"
        },
        {
          "internalType": "string",
          "name": "gender",
          "type": "string"
        },
        {
          "internalType": "string",
          "name": "Address",
          "type": "string"
        },
        {
          "internalType": "string",
          "name": "phone",
          "type": "string"
        },
        {
          "internalType": "string",
          "name": "password",
          "type": "string"
        }
      ],
      "name": "add_user",
      "outputs": [],
      "payable": false,
      "stateMutability": "nonpayable",
      "type": "function"
    },
    {
      "constant": true,
      "inputs": [],
      "name": "get_array",
      "outputs": [
        {
          "components": [
            {
              "internalType": "address",
              "name": "Account",
              "type": "address"
            },
            {
              "internalType": "string",
              "name": "Location",
              "type": "string"
            },
            {
              "internalType": "string",
              "name": "District",
              "type": "string"
            },
            {
              "internalType": "string",
              "name": "plot_no",
              "type": "string"
            },
            {
              "internalType": "string",
              "name": "area",
              "type": "string"
            },
            {
              "internalType": "int256",
              "name": "asset_value",
              "type": "int256"
            }
          ],
          "internalType": "struct Structregistry.asset[]",
          "name": "",
          "type": "tuple[]"
        }
      ],
      "payable": false,
      "stateMutability": "view",
      "type": "function"
    },
    {
      "constant": false,
      "inputs": [
        {
          "internalType": "address payable",
          "name": "sellerAddress",
          "type": "address"
        }
      ],
      "name": "remove_user",
      "outputs": [],
      "payable": true,
      "stateMutability": "payable",
      "type": "function"
    },
    {
      "constant": true,
      "inputs": [
        {
          "internalType": "address",
          "name": "Account",
          "type": "address"
        }
      ],
      "name": "get_user",
      "outputs": [
        {
          "internalType": "string",
          "name": "",
          "type": "string"
        },
        {
          "internalType": "string",
          "name": "",
          "type": "string"
        },
        {
          "internalType": "string",
          "name": "",
          "type": "string"
        },
        {
          "internalType": "string",
          "name": "",
          "type": "string"
        },
        {
          "internalType": "string",
          "name": "",
          "type": "string"
        }
      ],
      "payable": false,
      "stateMutability": "view",
      "type": "function"
    },
    {
      "constant": false,
      "inputs": [
        {
          "internalType": "address",
          "name": "Account",
          "type": "address"
        },
        {
          "internalType": "string",
          "name": "Location",
          "type": "string"
        },
        {
          "internalType": "string",
          "name": "District",
          "type": "string"
        },
        {
          "internalType": "string",
          "name": "plot_no",
          "type": "string"
        },
        {
          "internalType": "string",
          "name": "area",
          "type": "string"
        },
        {
          "internalType": "int256",
          "name": "value",
          "type": "int256"
        }
      ],
      "name": "add_asset",
      "outputs": [],
      "payable": false,
      "stateMutability": "nonpayable",
      "type": "function"
    },
    {
      "constant": false,
      "inputs": [
        {
          "internalType": "string",
          "name": "plot",
          "type": "string"
        },
        {
          "internalType": "address",
          "name": "Account",
          "type": "address"
        }
      ],
      "name": "add_khatiyan",
      "outputs": [],
      "payable": false,
      "stateMutability": "nonpayable",
      "type": "function"
    },
    {
      "constant": true,
      "inputs": [
        {
          "internalType": "string",
          "name": "plot",
          "type": "string"
        }
      ],
      "name": "get_khatiyan",
      "outputs": [
        {
          "internalType": "address[]",
          "name": "",
          "type": "address[]"
        },
        {
          "internalType": "uint256",
          "name": "",
          "type": "uint256"
        }
      ],
      "payable": false,
      "stateMutability": "view",
      "type": "function"
    },
    {
      "constant": true,
      "inputs": [
        {
          "internalType": "address",
          "name": "Account",
          "type": "address"
        }
      ],
      "name": "get_asset",
      "outputs": [
        {
          "internalType": "string",
          "name": "",
          "type": "string"
        },
        {
          "internalType": "string",
          "name": "",
          "type": "string"
        },
        {
          "internalType": "string",
          "name": "",
          "type": "string"
        },
        {
          "internalType": "string",
          "name": "",
          "type": "string"
        },
        {
          "internalType": "int256",
          "name": "",
          "type": "int256"
        }
      ],
      "payable": false,
      "stateMutability": "view",
      "type": "function"
    }
  ],
  "bytecode": "0x608060405234801561001057600080fd5b50612496806100206000396000f3fe60806040526004361061007b5760003560e01c806371ad72211161004e57806371ad722114610151578063982feeea14610192578063b07048d9146101bb578063c75d70ed146101d75761007b565b80631f1439241461008057806345a813de146100a95780634eeeae08146100ea5780636243554114610113575b600080fd5b34801561008c57600080fd5b506100a760048036036100a29190810190611c0c565b610202565b005b3480156100b557600080fd5b506100d060048036036100cb9190810190611bba565b61034e565b6040516100e1959493929190612170565b60405180910390f35b3480156100f657600080fd5b50610111600480360361010c9190810190611e37565b6107f3565b005b34801561011f57600080fd5b5061013a60048036036101359190810190611df6565b610952565b60405161014892919061211e565b60405180910390f35b34801561015d57600080fd5b5061017860048036036101739190810190611bba565b610a26565b6040516101899594939291906121df565b60405180910390f35b34801561019e57600080fd5b506101b960048036036101b49190810190611cf5565b610f93565b005b6101d560048036036101d09190810190611be3565b6110f2565b005b3480156101e357600080fd5b506101ec61153c565b6040516101f9919061214e565b60405180910390f35b61020a611883565b6040518060c001604052808873ffffffffffffffffffffffffffffffffffffffff1681526020018781526020018681526020018581526020018481526020018381525090506003819080600181540180825580915050906001820390600052602060002090600602016000909192909190915060008201518160000160006101000a81548173ffffffffffffffffffffffffffffffffffffffff021916908373ffffffffffffffffffffffffffffffffffffffff16021790555060208201518160010190805190602001906102e09291906118cf565b5060408201518160020190805190602001906102fd9291906118cf565b50606082015181600301908051906020019061031a9291906118cf565b5060808201518160040190805190602001906103379291906118cf565b5060a0820151816005015550505050505050505050565b606080606080600080600090505b6003805490508110156106fd57610371611883565b6003828154811061037e57fe5b90600052602060002090600602016040518060c00160405290816000820160009054906101000a900473ffffffffffffffffffffffffffffffffffffffff1673ffffffffffffffffffffffffffffffffffffffff1673ffffffffffffffffffffffffffffffffffffffff168152602001600182018054600181600116156101000203166002900480601f0160208091040260200160405190810160405280929190818152602001828054600181600116156101000203166002900480156104865780601f1061045b57610100808354040283529160200191610486565b820191906000526020600020905b81548152906001019060200180831161046957829003601f168201915b50505050508152602001600282018054600181600116156101000203166002900480601f0160208091040260200160405190810160405280929190818152602001828054600181600116156101000203166002900480156105285780601f106104fd57610100808354040283529160200191610528565b820191906000526020600020905b81548152906001019060200180831161050b57829003601f168201915b50505050508152602001600382018054600181600116156101000203166002900480601f0160208091040260200160405190810160405280929190818152602001828054600181600116156101000203166002900480156105ca5780601f1061059f576101008083540402835291602001916105ca565b820191906000526020600020905b8154815290600101906020018083116105ad57829003601f168201915b50505050508152602001600482018054600181600116156101000203166002900480601f01602080910402602001604051908101604052809291908181526020018280546001816001161561010002031660029004801561066c5780601f106106415761010080835404028352916020019161066c565b820191906000526020600020905b81548152906001019060200180831161064f57829003601f168201915b5050505050815260200160058201548152505090508773ffffffffffffffffffffffffffffffffffffffff16816000015173ffffffffffffffffffffffffffffffffffffffff1614156106ef5780602001518160400151826060015183608001518460a001518494508393508292508191509650965096509650965050506107ea565b50808060010191505061035c565b60006040518060400160405280600981526020017f4e6f7420466f756e640000000000000000000000000000000000000000000000815250906040518060400160405280600981526020017f4e6f7420466f756e640000000000000000000000000000000000000000000000815250906040518060400160405280600981526020017f4e6f7420466f756e640000000000000000000000000000000000000000000000815250906040518060400160405280600981526020017f4e6f7420466f756e6400000000000000000000000000000000000000000000008152509080905095509550955095509550505b91939590929450565b600080836040516108049190612107565b90815260200160405180910390208054905014156108895760405180602001604052808273ffffffffffffffffffffffffffffffffffffffff1673ffffffffffffffffffffffffffffffffffffffff168152506000836040516108679190612107565b908152602001604051809103902090600161088392919061194f565b5061094e565b6000826040516108999190612107565b908152602001604051809103902060019080546108b79291906119d9565b5060018190806001815401808255809150509060018203906000526020600020016000909192909190916101000a81548173ffffffffffffffffffffffffffffffffffffffff021916908373ffffffffffffffffffffffffffffffffffffffff1602179055505060016000836040516109309190612107565b908152602001604051809103902090805461094c9291906119d9565b505b5050565b6060600080836040516109659190612107565b90815260200160405180910390206000846040516109839190612107565b90815260200160405180910390208054905081805480602002602001604051908101604052809291908181526020018280548015610a1657602002820191906000526020600020905b8160009054906101000a900473ffffffffffffffffffffffffffffffffffffffff1673ffffffffffffffffffffffffffffffffffffffff16815260200190600101908083116109cc575b5050505050915091509150915091565b606080606080606060008090505b600280549050811015610e7057610a49611a2b565b60028281548110610a5657fe5b90600052602060002090600602016040518060c00160405290816000820160009054906101000a900473ffffffffffffffffffffffffffffffffffffffff1673ffffffffffffffffffffffffffffffffffffffff1673ffffffffffffffffffffffffffffffffffffffff168152602001600182018054600181600116156101000203166002900480601f016020809104026020016040519081016040528092919081815260200182805460018160011615610100020316600290048015610b5e5780601f10610b3357610100808354040283529160200191610b5e565b820191906000526020600020905b815481529060010190602001808311610b4157829003601f168201915b50505050508152602001600282018054600181600116156101000203166002900480601f016020809104026020016040519081016040528092919081815260200182805460018160011615610100020316600290048015610c005780601f10610bd557610100808354040283529160200191610c00565b820191906000526020600020905b815481529060010190602001808311610be357829003601f168201915b50505050508152602001600382018054600181600116156101000203166002900480601f016020809104026020016040519081016040528092919081815260200182805460018160011615610100020316600290048015610ca25780601f10610c7757610100808354040283529160200191610ca2565b820191906000526020600020905b815481529060010190602001808311610c8557829003601f168201915b50505050508152602001600482018054600181600116156101000203166002900480601f016020809104026020016040519081016040528092919081815260200182805460018160011615610100020316600290048015610d445780601f10610d1957610100808354040283529160200191610d44565b820191906000526020600020905b815481529060010190602001808311610d2757829003601f168201915b50505050508152602001600582018054600181600116156101000203166002900480601f016020809104026020016040519081016040528092919081815260200182805460018160011615610100020316600290048015610de65780601f10610dbb57610100808354040283529160200191610de6565b820191906000526020600020905b815481529060010190602001808311610dc957829003601f168201915b50505050508152505090508773ffffffffffffffffffffffffffffffffffffffff16816000015173ffffffffffffffffffffffffffffffffffffffff161415610e625780602001518160400151826060015183608001518460a00151849450839350829250819150809050965096509650965096505050610f8a565b508080600101915050610a34565b6040518060400160405280600981526020017f4e6f7420466f756e6400000000000000000000000000000000000000000000008152506040518060400160405280600981526020017f4e6f7420466f756e6400000000000000000000000000000000000000000000008152506040518060400160405280600981526020017f4e6f7420466f756e6400000000000000000000000000000000000000000000008152506040518060400160405280600981526020017f4e6f7420466f756e6400000000000000000000000000000000000000000000008152506040518060400160405280600981526020017f4e6f7420466f756e64000000000000000000000000000000000000000000000081525095509550955095509550505b91939590929450565b610f9b611a2b565b6040518060c001604052808873ffffffffffffffffffffffffffffffffffffffff1681526020018781526020018681526020018581526020018481526020018381525090506002819080600181540180825580915050906001820390600052602060002090600602016000909192909190915060008201518160000160006101000a81548173ffffffffffffffffffffffffffffffffffffffff021916908373ffffffffffffffffffffffffffffffffffffffff16021790555060208201518160010190805190602001906110719291906118cf565b50604082015181600201908051906020019061108e9291906118cf565b5060608201518160030190805190602001906110ab9291906118cf565b5060808201518160040190805190602001906110c89291906118cf565b5060a08201518160050190805190602001906110e59291906118cf565b5050505050505050505050565b8073ffffffffffffffffffffffffffffffffffffffff166108fc349081150290604051600060405180830381858888f19350505050158015611138573d6000803e3d6000fd5b5060008090505b60038054905081101561153857611154611883565b6003828154811061116157fe5b90600052602060002090600602016040518060c00160405290816000820160009054906101000a900473ffffffffffffffffffffffffffffffffffffffff1673ffffffffffffffffffffffffffffffffffffffff1673ffffffffffffffffffffffffffffffffffffffff168152602001600182018054600181600116156101000203166002900480601f0160208091040260200160405190810160405280929190818152602001828054600181600116156101000203166002900480156112695780601f1061123e57610100808354040283529160200191611269565b820191906000526020600020905b81548152906001019060200180831161124c57829003601f168201915b50505050508152602001600282018054600181600116156101000203166002900480601f01602080910402602001604051908101604052809291908181526020018280546001816001161561010002031660029004801561130b5780601f106112e05761010080835404028352916020019161130b565b820191906000526020600020905b8154815290600101906020018083116112ee57829003601f168201915b50505050508152602001600382018054600181600116156101000203166002900480601f0160208091040260200160405190810160405280929190818152602001828054600181600116156101000203166002900480156113ad5780601f10611382576101008083540402835291602001916113ad565b820191906000526020600020905b81548152906001019060200180831161139057829003601f168201915b50505050508152602001600482018054600181600116156101000203166002900480601f01602080910402602001604051908101604052809291908181526020018280546001816001161561010002031660029004801561144f5780601f106114245761010080835404028352916020019161144f565b820191906000526020600020905b81548152906001019060200180831161143257829003601f168201915b5050505050815260200160058201548152505090508273ffffffffffffffffffffffffffffffffffffffff16816000015173ffffffffffffffffffffffffffffffffffffffff16141561152a57600382815481106114a957fe5b9060005260206000209060060201600080820160006101000a81549073ffffffffffffffffffffffffffffffffffffffff02191690556001820160006114ef9190611a77565b6002820160006114ff9190611a77565b60038201600061150f9190611a77565b60048201600061151f9190611a77565b600582016000905550505b50808060010191505061113f565b5050565b60606003805480602002602001604051908101604052809291908181526020016000905b8282101561187a57838290600052602060002090600602016040518060c00160405290816000820160009054906101000a900473ffffffffffffffffffffffffffffffffffffffff1673ffffffffffffffffffffffffffffffffffffffff1673ffffffffffffffffffffffffffffffffffffffff168152602001600182018054600181600116156101000203166002900480601f0160208091040260200160405190810160405280929190818152602001828054600181600116156101000203166002900480156116725780601f1061164757610100808354040283529160200191611672565b820191906000526020600020905b81548152906001019060200180831161165557829003601f168201915b50505050508152602001600282018054600181600116156101000203166002900480601f0160208091040260200160405190810160405280929190818152602001828054600181600116156101000203166002900480156117145780601f106116e957610100808354040283529160200191611714565b820191906000526020600020905b8154815290600101906020018083116116f757829003601f168201915b50505050508152602001600382018054600181600116156101000203166002900480601f0160208091040260200160405190810160405280929190818152602001828054600181600116156101000203166002900480156117b65780601f1061178b576101008083540402835291602001916117b6565b820191906000526020600020905b81548152906001019060200180831161179957829003601f168201915b50505050508152602001600482018054600181600116156101000203166002900480601f0160208091040260200160405190810160405280929190818152602001828054600181600116156101000203166002900480156118585780601f1061182d57610100808354040283529160200191611858565b820191906000526020600020905b81548152906001019060200180831161183b57829003601f168201915b5050505050815260200160058201548152505081526020019060010190611560565b50505050905090565b6040518060c00160405280600073ffffffffffffffffffffffffffffffffffffffff16815260200160608152602001606081526020016060815260200160608152602001600081525090565b828054600181600116156101000203166002900490600052602060002090601f016020900481019282601f1061191057805160ff191683800117855561193e565b8280016001018555821561193e579182015b8281111561193d578251825591602001919060010190611922565b5b50905061194b9190611abf565b5090565b8280548282559060005260206000209081019282156119c8579160200282015b828111156119c75782518260006101000a81548173ffffffffffffffffffffffffffffffffffffffff021916908373ffffffffffffffffffffffffffffffffffffffff1602179055509160200191906001019061196f565b5b5090506119d59190611ae4565b5090565b828054828255906000526020600020908101928215611a1a5760005260206000209182015b82811115611a195782548255916001019190600101906119fe565b5b509050611a279190611ae4565b5090565b6040518060c00160405280600073ffffffffffffffffffffffffffffffffffffffff16815260200160608152602001606081526020016060815260200160608152602001606081525090565b50805460018160011615610100020316600290046000825580601f10611a9d5750611abc565b601f016020900490600052602060002090810190611abb9190611abf565b5b50565b611ae191905b80821115611add576000816000905550600101611ac5565b5090565b90565b611b2491905b80821115611b2057600081816101000a81549073ffffffffffffffffffffffffffffffffffffffff021916905550600101611aea565b5090565b90565b600081359050611b368161240e565b92915050565b600081359050611b4b81612425565b92915050565b600081359050611b608161243c565b92915050565b600082601f830112611b7757600080fd5b8135611b8a611b8582612282565b612255565b91508082526020830160208301858383011115611ba657600080fd5b611bb18382846123bb565b50505092915050565b600060208284031215611bcc57600080fd5b6000611bda84828501611b27565b91505092915050565b600060208284031215611bf557600080fd5b6000611c0384828501611b3c565b91505092915050565b60008060008060008060c08789031215611c2557600080fd5b6000611c3389828a01611b27565b965050602087013567ffffffffffffffff811115611c5057600080fd5b611c5c89828a01611b66565b955050604087013567ffffffffffffffff811115611c7957600080fd5b611c8589828a01611b66565b945050606087013567ffffffffffffffff811115611ca257600080fd5b611cae89828a01611b66565b935050608087013567ffffffffffffffff811115611ccb57600080fd5b611cd789828a01611b66565b92505060a0611ce889828a01611b51565b9150509295509295509295565b60008060008060008060c08789031215611d0e57600080fd5b6000611d1c89828a01611b27565b965050602087013567ffffffffffffffff811115611d3957600080fd5b611d4589828a01611b66565b955050604087013567ffffffffffffffff811115611d6257600080fd5b611d6e89828a01611b66565b945050606087013567ffffffffffffffff811115611d8b57600080fd5b611d9789828a01611b66565b935050608087013567ffffffffffffffff811115611db457600080fd5b611dc089828a01611b66565b92505060a087013567ffffffffffffffff811115611ddd57600080fd5b611de989828a01611b66565b9150509295509295509295565b600060208284031215611e0857600080fd5b600082013567ffffffffffffffff811115611e2257600080fd5b611e2e84828501611b66565b91505092915050565b60008060408385031215611e4a57600080fd5b600083013567ffffffffffffffff811115611e6457600080fd5b611e7085828601611b66565b9250506020611e8185828601611b27565b9150509250929050565b6000611e978383611eb7565b60208301905092915050565b6000611eaf838361205a565b905092915050565b611ec081612363565b82525050565b6000611ed1826122ce565b611edb8185612314565b9350611ee6836122ae565b8060005b83811015611f17578151611efe8882611e8b565b9750611f09836122fa565b925050600181019050611eea565b5085935050505092915050565b6000611f2f826122d9565b611f398185612325565b935083602082028501611f4b856122be565b8060005b85811015611f875784840389528151611f688582611ea3565b9450611f7383612307565b925060208a01995050600181019050611f4f565b50829750879550505050505092915050565b611fa281612387565b82525050565b611fb181612387565b82525050565b6000611fc2826122ef565b611fcc8185612347565b9350611fdc8185602086016123ca565b611fe5816123fd565b840191505092915050565b6000611ffb826122ef565b6120058185612358565b93506120158185602086016123ca565b80840191505092915050565b600061202c826122e4565b6120368185612336565b93506120468185602086016123ca565b61204f816123fd565b840191505092915050565b600060c0830160008301516120726000860182611eb7565b506020830151848203602086015261208a8282612021565b915050604083015184820360408601526120a48282612021565b915050606083015184820360608601526120be8282612021565b915050608083015184820360808601526120d88282612021565b91505060a08301516120ed60a0860182611f99565b508091505092915050565b612101816123b1565b82525050565b60006121138284611ff0565b915081905092915050565b600060408201905081810360008301526121388185611ec6565b905061214760208301846120f8565b9392505050565b600060208201905081810360008301526121688184611f24565b905092915050565b600060a082019050818103600083015261218a8188611fb7565b9050818103602083015261219e8187611fb7565b905081810360408301526121b28186611fb7565b905081810360608301526121c68185611fb7565b90506121d56080830184611fa8565b9695505050505050565b600060a08201905081810360008301526121f98188611fb7565b9050818103602083015261220d8187611fb7565b905081810360408301526122218186611fb7565b905081810360608301526122358185611fb7565b905081810360808301526122498184611fb7565b90509695505050505050565b6000604051905081810181811067ffffffffffffffff8211171561227857600080fd5b8060405250919050565b600067ffffffffffffffff82111561229957600080fd5b601f19601f8301169050602081019050919050565b6000819050602082019050919050565b6000819050602082019050919050565b600081519050919050565b600081519050919050565b600081519050919050565b600081519050919050565b6000602082019050919050565b6000602082019050919050565b600082825260208201905092915050565b600082825260208201905092915050565b600082825260208201905092915050565b600082825260208201905092915050565b600081905092915050565b600061236e82612391565b9050919050565b600061238082612391565b9050919050565b6000819050919050565b600073ffffffffffffffffffffffffffffffffffffffff82169050919050565b6000819050919050565b82818337600083830152505050565b60005b838110156123e85780820151818401526020810190506123cd565b838111156123f7576000848401525b50505050565b6000601f19601f8301169050919050565b61241781612363565b811461242257600080fd5b50565b61242e81612375565b811461243957600080fd5b50565b61244581612387565b811461245057600080fd5b5056fea365627a7a72315820d32e9f3874bd2526be137fe5f75a400ec16af898be8693b2fcb65d71e1af84cd6c6578706572696d656e74616cf564736f6c63430005100040",
  "source": "pragma experimental ABIEncoderV2;\r\npragma solidity >=0.4.22 <0.8.0;\r\n\r\n// Creating a Smart Contract\r\ncontract Structregistry {\r\n\r\n  struct users {\r\n\r\n    address Account;\r\n    string name;\r\n    string gender;\r\n    string Address;\r\n    string phone;\r\n    string password;\r\n  }\r\n\r\n  struct asset {\r\n\r\n    address Account;\r\n    string Location;\r\n    string District;\r\n    string plot_no;\r\n    string area;\r\n    int asset_value;\r\n  }\r\n\r\n  mapping(string => address[]) Khatiyan;\r\n  address[] temp;\r\n  users[] usr;\r\n  asset[] ast;\r\n\r\n  //   address  put this in account input datatype    \r\n\r\n  function add_user(address Account, string memory name, string memory gender, string memory Address, string memory phone, string memory password)\r\n  public {\r\n    users memory e = users(Account, name, gender, Address, phone, password);\r\n    usr.push(e);\r\n  }\r\n  \r\n  function get_array() public view returns( asset[] memory){\r\n      return(ast);\r\n  }\r\n  \r\n  \r\n  function remove_user(address payable sellerAddress)\r\n  payable public {\r\n    sellerAddress.transfer(msg.value);\r\n    uint i;\r\n    for (i = 0; i < ast.length; i++) {\r\n      asset memory a = ast[i];\r\n\r\n      if (a.Account == sellerAddress) {\r\n        delete ast[i];\r\n      }\r\n    }\r\n  }\r\n\r\n\r\n  function get_user(address Account) public view returns(string memory, string memory,\r\n    string memory, string memory, string memory) {\r\n    uint i;\r\n    for (i = 0; i < usr.length; i++) {\r\n      users memory e = usr[i];\r\n      if (e.Account == Account) {\r\n        return (e.name, e.gender, e.Address, e.phone, e.password);\r\n      }\r\n    }\r\n    return (\"Not Found\", \"Not Found\", \"Not Found\", \"Not Found\", \"Not Found\");\r\n  }\r\n\r\n  //   ------------------------------------------------   Asset wala kaam yahan se suru hai ---------------------------------------------------------------------------------\r\n  function add_asset(\r\n    address Account, string memory Location, string memory District, string memory plot_no, string memory area, int value) public {\r\n    asset memory a = asset(Account, Location, District, plot_no, area, value);\r\n    ast.push(a);\r\n  }\r\n\r\n  \r\n\r\n  function add_khatiyan(string memory plot, address Account) public {\r\n    if (Khatiyan[plot].length == 0) {\r\n      Khatiyan[plot] = [Account];\r\n    } else {\r\n      temp = Khatiyan[plot];\r\n      temp.push(Account);\r\n      Khatiyan[plot] = (temp);\r\n    }\r\n  }\r\n\r\n  function get_khatiyan(string memory plot) public view returns(address[] memory ,uint) {\r\n    return (Khatiyan[plot],Khatiyan[plot].length);\r\n  }\r\n\r\n  function get_asset(address Account) public view returns(string memory, string memory,\r\n    string memory, string memory, int) {\r\n    uint i;\r\n    for (i = 0; i < ast.length; i++) {\r\n      asset memory a = ast[i];\r\n      if (a.Account == Account) {\r\n        return (a.Location, a.District, a.plot_no, a.area, a.asset_value);\r\n      }\r\n    }\r\n    return (\"Not Found\", \"Not Found\", \"Not Found\", \"Not Found\", 0);\r\n  }\r\n}",
  "sourcePath": "C:/Users/samun/Desktop/land registration/contracts/Structregistry.sol",
  "compiler": {
    "name": "solc",
    "version": "0.5.16+commit.9c3226ce.Emscripten.clang"
  },
  "schemaVersion": "3.4.1",
  "updatedAt": "2021-06-02T20:07:52.387Z",
  "networkType": "ethereum",
  "devdoc": {
    "methods": {}
  },
  "userdoc": {
    "methods": {}
  }
}